:020000040000fa
:10000000f0ff0320b15c0000c76e0000a372000087
:1000100037770000e7770000077900000000000054
:100020000000000000000000000000000767000062
:10003000f775000000000000076700000767000078
:1000400007670000076700000767000007670000f8
:1000500007670000076700000767000007670000e8
:1000600007670000076700000767000007670000d8
:1000700007670000076700000767000007670000c8
:10008000e5720000076700000767000005730000c5
:10009000257300000767000007670000076700007e
:1000a0000767000007670000076700000767000098
:1000b0000767000007670000076700000767000088
:1000c0000767000007670000076700000767000078
:1000d0000767000007670000076700000767000068
:1000e0000767000007670000000000000000000034
:1000f00000000000076700000767000007670000b6
:100100000767000007670000076700000767000037
:100110000767000007670000076700000767000027
:100120000767000007670000076700000767000017
:100130000767000007670000893600008936000065
:100140008936000089360000076700000767000055
:1001500007670000076700000767000007670000e7
:1001600007670000076700000767000007670000d7
:1001700007670000076700000767000007670000c7
:1001800007670000076700000767000007670000b7
:1001900007670000076700000767000007670000a7
:1001a0000767000007670000076700000767000097
:1001b0000767000007670000076700000767000087
:1001c0000767000007670000076700000767000077
:1001d0000767000007670000076700000767000067
:1001e000076700000767000007670000b1700000a4
:1001f0000767000007670000076700000767000047
:100200000767000007670000076700000767000036
:100210000767000007670000076700000767000026
:100220000767000007670000076700000767000016
:100230000767000007670000076700000767000006
:1002400007670000076700000767000007670000f6
:1002500007670000076700000767000007670000e6
:04026000076700002c
:020000040000fa
:10026400f8b500bff8bc08bc9e467047b16a0000f0
:10027400f8b500bff8bc08bc9e4670478d6a000004
:020000040000fa
:100284002de9f0414ff6ff72b44b1a800122b44bb2
:100294001a7010f0100736d0b24a137823f0100306
:1002a400137001270e4600f00f05ae4b1c7805ebca
:1002b400041404f0ff04442c0fd000f2f082222c2a
:1002c40000f0e78240f2e481242c40f0df82a6496a
:1002d400a64803f0fdff804648b9a54b187802f004
:1002e400bdff1ffa80f8b8f1000f00f03b839d4b6f
:1002f4001b78042b00f05a81082b00f05381022b49
:1003040040f05e8156e1974b1b7813f0100f05d037
:1003140000f00f02012a01d0bde8f08103f00f03c1
:10032400904a1370bee70122924b1a70022002f029
:1003340095ff28b100228f4b1a704ff0150842e147
:10034400002006f06bfd05f0c3f9804678b1b8f1e2
:10035400ff0f00f00484824b1b78bbb103f022fe34
:10036400032007f003fb0022824b1a702be10022ca
:100374007b4b1a7007f0f0fa80460028e7d101227f
:100384007d4b1a70032007f0f1fa1ce107f0a8fa7c
:10039400e4e7784b1b7843b94ff0000807f0e7fa1d
:1003a4000022764b1a703123aee00020714b187096
:1003b40006f034fd03f0f6fd07f092fa8046ede70f
:1003c40006f000fe6e4b1b78002b00f0c58305f091
:1003d4007ff9804648b1b8f1ff0f00f0cd83604b40
:1003e4001b7873b103f0defdede000225c4b1a7064
:1003f40007f0b2fa80460028edd101225e4b1a7054
:10040400e1e007f06dfaede701f03afb804648b110
:10041400b8f1ff0f00f05182514b1b789bb104f0ef
:1004240097fcd0e000224e4b1a70564807f096fa1b
:1004340080460028ecd1534b188806f00bfd0122ae
:10044400514b1a70bfe007f08bfae8e706f002faa6
:10045400804648b1b8f1ff0f00f03682404b1b785c
:1004640073b107f049f9aee000223d4b1a7007f072
:1004740079fa80460028edd10122444b1a70a2e09b
:1004840007f072faede707f06ffa07f035f94ff06d
:100494000008334b83f8008095e007f065fa804646
:1004a40007f02af900222e4b1a70b8f1000f40f021
:1004b400168207f055fa04f04bfc4ff00008284b65
:1004c40083f800807fe007f04ffa804607f014f9c4
:1004d4000022234b1a70b8f1000f40f0028207f09b
:1004e4003ffa804604f034fc00221d4b1a70b8f128
:1004f400000f40f0f88103f055fd07f0f1f9804654
:1005040000221e4b1a702123b8f1ff0f5bd1012189
:100514001f4a11701f4a1380c822104b1a8084e0ae
:100524000022164b1a7077b90e4b1b7813f00c0f80
:1005340000f0cf810c4b1b884bb90c4b1b885bbb69
:100544004ff0fe083fe0204607f012faece70220e5
:1005540006f0d2fc4ff0fe0835e000bf9a010020ff
:100564006201002063010020640100209201002048
:10057400aa0100209c01002046020020f402002071
:10058400b12700207a010020a40100209e01002050
:10059400900100205e010020032006f0adfc4ff026
:1005a400fe0810e007f0e0f907f0a6f807f0d8f924
:1005b40004f0cefbb8f1160f16d00222cb4b1a7002
:1005c400b8f1ff0f21d0c94b187800f00f03ab42ec
:1005d40057d0b8f1000f40f09381002e40f0bb815a
:1005e400c24b1d70b046ace103f0dcfc07f078f9b7
:1005f400002006f04bfc012006f048fc0122bb4b16
:100604001a70e0e74ff01108dae70122b84b1a70cc
:10061400b84b1c80242c18d014d8123c94423ff6ba
:100624007baf4ff4fa62b44b1a80b348b0f9003090
:10063400b24981fb0321da17c2eba1029b1a0380a2
:10064400bde8f081482c7ff467af42f22832aa4b10
:100654001a80eae74ff01108b5e707f085f907f0cb
:100664004bf856e1022006f011fc5ce1032006f091
:100674000dfc58e104229d4b1a705de1002eafd0b1
:100684006de100219a4b197005f07af8bde8f0810c
:10069400122c00f0fe800022964b1a80a4f1110364
:1006a400772b00f2138101a252f823f025050000f4
:1006b400c50300002b03000009060000d108000058
:1006c400d1080000d108000009060000d10800008c
:1006d400d1080000d1080000d1080000d1080000b2
:1006e400d1080000d1080000d1080000fb0400007c
:1006f4002b050000090600000d040000d1080000cd
:10070400d1080000d108000009060000d10800004b
:10071400d1080000d1080000d1080000d108000071
:10072400d1080000d1080000d108000097030000a0
:1007340009060000d108000009060000d1080000e5
:10074400d1080000d108000009060000d10800000b
:10075400d1080000d1080000d1080000d108000031
:10076400d1080000d1080000d1080000e304000013
:10077400b7040000090600002b050000d1080000a2
:10078400d1080000d108000051040000d108000085
:10079400d1080000d1080000d1080000d1080000f1
:1007a400d1080000d1080000d1080000d1080000e1
:1007b400d1080000d1080000d1080000d1080000d1
:1007c400d1080000d1080000d1080000d1080000c1
:1007d400d1080000d1080000d1080000d1080000b1
:1007e400d1080000d1080000d1080000d1080000a1
:1007f400d1080000d1080000d1080000d108000091
:10080400d1080000d1080000d1080000d108000080
:10081400d1080000d1080000d1080000d108000070
:10082400d1080000d1080000d1080000d108000060
:10083400d1080000d1080000d1080000d108000050
:10084400d1080000d1080000d1080000d108000040
:10085400d1080000d1080000d1080000d108000030
:10086400d1080000d1080000d1080000cb0400002a
:100874009f040000090600008b040000d10800005a
:10088400d1080000d10800002b050000422c7ff4a1
:1008940002af022002f0e2fc1ffa80f823e5822c6a
:1008a400f7d006d9842c3ff418ad882c3ff415ad4d
:1008b400f1e6482c3ff411adede6242201210c4b66
:1008c40019700c4b1a80c0e64822f7e74ff0120863
:1008d40079e64ff0fe0876e64ff0120873e68223bd
:1008e40012e6812310e641230ee600bf63010020d7
:1008f400900100205e0100209a0100206766666670
:10090400284310f0080f12d09f4b1b78002b7ff464
:10091400a4ae9e4b1b88002b7ff4a4ae9c4b1b887b
:10092400002b7ff4a3aeb8f1000f3ff4a7ae994bb0
:100934001b78082b3ff49eae964a137843f01003bd
:1009440013700022944b1a704146924b187804f0ad
:1009540017ffbde8f081284310f0080fd4d145f00b
:1009640010053de600228d4b1a80a4f11103772b6c
:10097400b2d801a252f823f025050000c5030000f7
:100984002b03000059060000dd080000dd0800000c
:10099400dd08000059060000dd080000dd08000045
:1009a400dd080000dd080000dd080000dd080000af
:1009b400dd080000dd080000fb0400002b0500003a
:1009c400590600000d040000dd080000dd080000e9
:1009d400dd08000059060000dd080000dd08000005
:1009e400dd080000dd080000dd080000dd0800006f
:1009f400dd080000dd080000970300005906000030
:100a0400dd08000059060000dd080000dd080000d4
:100a1400dd08000059060000dd080000dd080000c4
:100a2400dd080000dd080000dd080000dd0800002e
:100a3400dd080000dd080000e3040000b704000046
:100a4400590600002b050000dd080000dd08000049
:100a5400dd08000051040000dd080000dd0800008e
:100a6400dd080000dd080000dd080000dd080000ee
:100a7400dd080000dd080000dd080000dd080000de
:100a8400dd080000dd080000dd080000dd080000ce
:100a9400dd080000dd080000dd080000dd080000be
:100aa400dd080000dd080000dd080000dd080000ae
:100ab400dd080000dd080000dd080000dd0800009e
:100ac400dd080000dd080000dd080000dd0800008e
:100ad400dd080000dd080000dd080000dd0800007e
:100ae400dd080000dd080000dd080000dd0800006e
:100af400dd080000dd080000dd080000dd0800005e
:100b0400dd080000dd080000dd080000dd0800004d
:100b1400dd080000dd080000dd080000dd0800003d
:100b2400dd080000dd080000dd080000dd0800002d
:100b3400dd080000dd080000cb0400009f04000075
:100b4400590600008b040000dd080000dd080000e9
:100b5400dd0800002b0500004ff0510833e50320a9
:100b640006f004ff00220e4b1a7001220a4b1a7081
:100b740013220a4b1a8054e50122074b1a701222e1
:100b8400064b1a804de500bf9e0100206401002041
:100b94009201002063010020900100205e010020ea
:040ba4009c01002090
:020000040000fa
:100ba8002de9f04f89b0a54b1c7824b109242046c3
:100bb80009b0bde8f08f0546b0f808805ffa88f7fd
:100bc80007f0e006202e27d01ad9402e24d0602e18
:100bd80018d19b4b1b78b34200f0d1814ff000092c
:100be800cdf808904ff0030a0195029b00931ffa75
:100bf80089f307f010023146504603f063fed6e74a
:100c0800002ee6d04ff00009cdf808904ff0030a07
:100c1800baf1ff0fcbd0e7e7b5f800a0b5f80ab0f6
:100c28004fea182303eb0b239bb203934fea1b2bca
:100c3800184606f0d3fb0490002800f0a283037b3b
:100c48009b4506d94ff00009cdf808904ff0110ade
:100c5800cae707f01003059302465946039805f0c2
:100c6800b9f80290402e0fd0202e2bd00694ddf834
:100c7800089000230793059b002b56d0bbf1010f6a
:100c880051d94ff0050aafe7baf10a0f01d008248d
:100c98008de7431e032b08d805f10c0307930023a7
:100ca800ab81eb8106948146e5e7664b1b88a3f18f
:100cb8001009029b4b4500f2448305f1100307938a
:100cc8000694d8e717f0020f0dd0baf10a0f01d039
:100cd80008246ce7c7f38103c3f1040905f10c0389
:100ce80007930694c7e7ea89ab8903eb0249564b99
:100cf8001b8809f110029a4204d9063b9a4507d08d
:100d0800082454e709f10a039a4501d008244ee75c
:100d180005f110030793aaf10a03994594bf00232c
:100d280001230693a7e701230593069b002b42d1d5
:100d3800029b4bb9454bbdf80c201a80444b83f8f5
:100d480000b0444b049a1a60402e00f0e380059be3
:100d58000193079b0093049b4a465946039801f068
:100d6800bff98246ff287ff43faf01233a4a137048
:100d78003a4a9df814101170394a82f800b0394a7d
:100d8800bdf80c101180384ac2f80090374a07990c
:100d98001160049a116a364a1160284a1370354b5b
:100da8001d602b8923f0ff0308f0f00843ea0803cd
:100db8002b81069cfbe601232f4a13702f4a1370e0
:100dc8002f4b9df814201a70204bbdf80c201a8068
:100dd8001f4b83f800b01f4b049a1a60402e294b12
:100de80006bf029a1a60c3f80090274b186808b12a
:100df80006f0d6fc234b1868013020f0010006f0fd
:100e0800c7fc214b186080b1402e41d0aaf10a09d5
:100e18004a4605f1100106f0a3fb0022084b1a70a0
:100e2800a2461a4bc3f80090f2e6059b002b14bfac
:100e38004ff0050a4ff0040ad6e600bfb427002099
:100e48002f230020500200206202002044230020ab
:100e58005c230020582300202c2300202d23002071
:100e6800602300205e2300203c230020182300205c
:100e78002823002038230020212300202e230020af
:100e88002023002024230020402300201c230020ae
:100e9800059b01930090049b029a5946039801f020
:100ea800a7fb824658b3ff28bbd10422b84b1a705f
:100eb800b84b9df814201a70b74b83f800b0b74ba5
:100ec800bdf80c201a80b64b029a1a60b54b1a6806
:100ed800b54b1a60049bda69b44b1a600122b44b13
:100ee8001a70b44b1d602b8923f0ff0308f0f0083b
:100ef80043ea08032b816022af4b1a7057e64a4633
:100f0800a84b196805f1100006f02afb6022aa4bcd
:100f18001a7086e7059b0193079b0093049b029a2e
:100f28005946039801f064fb8246ff287ff45caec3
:100f38000322974b1a70974b9df814201a70964b02
:100f480083f800b0954bbdf80c201a80944b029a98
:100f58001a60954b079a1a60049bda69934b1a60da
:100f68000122934b1a70934b1d602b8923f0ff03ca
:100f780008f0f00843ea08032b81069c17e6002ec8
:100f880040f03d818d4b1a7808f010039a4200f02a
:100f9800f2818b4b1b88093b9bb207f010028749f3
:100fa8000a70804a1068002800f0e881854a1168b4
:100fb800854a1268521a18f0010f1ad09a4200f2a4
:100fc800c5812b88033b9a4200f2c0816fea680e04
:100fd8000ef0070e724505d0072a40f2b7819a42f3
:100fe80040f0b4814ff0000e784b83f800e0914652
:100ff80009e04ff0010cdff8d4e18ef800c0994603
:101008009a4240f2a38111f0010f4ed149086a8932
:101018004fea182343ea022320f8113009f10100ae
:10102800400801281ad901218846dff898c1dff85d
:1010380074e105eb4102dcf8003008eb5308b2f824
:1010480008a053891b0243ea1a23def8002022f87d
:101058001830013189b288468142ead35b4b93f854
:101068000080b8f1000f41d00a232b7000236b7069
:10107800eb88c3f30b0343f44053eb804f4b1b78cf
:10108800002b00f0ad8030232b7200236b724f4b86
:101098001b78012b00f0a98000234a4a1360464ab6
:1010a8001370b246994602939ee5490810f811302c
:1010b80020f811303b49434802685208d1f800e053
:1010c8002b8923f0ff033ef812c043ea0c032ef8e5
:1010d8001230036823f001030233086809f1ff3274
:1010e80005f10a01184406f03bfab7e7384bd3f884
:1010f80000c0354a12683749097837480088dff850
:10110800dce09ef800e0cdf804e0dff898e0def8d7
:1011180000300093634600f0e3ff8246ff2829d1a0
:1011280002221b4b1a702d4b1a781a4b1a70294b36
:101138001a78194b1a70284b1a88184b1a80224ba8
:101148001a68174b1a60174b1a68174b1a60204b0e
:101158001b681a6a154b1a600122154b1a70154b39
:101168001d600023194a1370134a1370154a13603f
:1011780044461ce5dff82c80d8f8000006f010fb88
:101188000023c8f80030baf1000f3ff46dafdfe07c
:101198002c2300202d230020602300205e23002024
:1011a8003c2300204023002018230020282300206f
:1011b800b4270020382300202f2300202e230020ce
:1011c800620200201c230020242300202123002069
:1011d800582300205c2300204423002020230020e3
:1011e80020232b7200236b7251e76d4a13684b441e
:1011f8001360b2464ff00009cdf80890f4e42a7a5b
:1012080002f01002674b1b78934200f0c180664bd6
:101218001b88093b9bb263490a709946604a126869
:101228006249096813448b4286bfa1eb0209002179
:1012380001215f4b19705ffa88f8a5f8088012f051
:10124800010354d14fea520e5a4a106830f81e2052
:1012580048ea0228a5f808805fea590c13d0002153
:101268001a46724400eb4203b3f8028030f8123099
:101278001b0a05eb410243ea08235381013189b275
:101288000a468c45edd8eb88c3f30b0343f440536f
:10129800eb802b8903f47f432b81454a1278002a7f
:1012a8003ad0404a127813432b81b9f1060f3ad845
:1012b8000a232b7000236b70c9f107032a8942eabd
:1012c80043032b813a4b1b78012b30d0dff8e480a5
:1012d800d8f8000006f064fa0023c8f80030304a55
:1012e8001360354a1370a246994602937ce4314b49
:1012f8001968520831f8123023f0ff0343ea08084e
:10130800a5f8088001eb420109f1ff32023105f12d
:101318000a0006f025f9b6e7224a127842f00102df
:1013280013432b81c1e709f103032b80cae71c4a49
:1013380013684b441360a2464ff00009cdf808909b
:1013480052e4012306930023079394e44ff00e0a16
:101358000023174a1370184a1370164b186820b1e7
:1013680006f01efa0022134b1a6000230c4a136081
:10137800994602934ce44ff0010ae9e74ff0030a5b
:10138800e6e74ff00009cdf808904ff0080a2be483
:101398004ff00009cdf808904ff0010a24e400bf8f
:1013a8001c2300202e23002050020020242300208c
:0c13b80021230020402300202f230020d0
:020000040000fa
:1013c400c42600201c000000000000000c270020a0
:1013d400100000000000000000000020c000000019
:1013e40000000000f62600200200000000000000bb
:1013f400292700200100000000000000c000002098
:101404002c00000000000000ec0000200800000098
:10141400000000007027002004000000000000000d
:10142400662700200200000000000000382700208a
:1014340008000000000000004c25002018010000f6
:10144400010000000000000000000000011621005f
:10145400010900005478000008710000582700209a
:101464000000000000000000000000000000000078
:1014740000000000001a210001090000607800004b
:101484003471000048270020000000000000000024
:10149400000000000000000000000000121c060014
:1014a4000108000078780000607400009427002090
:1014b4000000000000000000000000000000000028
:1014c40000000000131c06000108000084780000de
:1014d4007c74000098270020000000000000000039
:1014e40000000000000000000000000000602a006e
:1014f4000109000090780000ac760000402700202d
:1015040000000000000000000000000000000000d7
:101514000000000010702a00010900009c780000ff
:10152400c0760000502700200000000000000000ea
:10153400000000000000000000000000ffff0000a9
:101544000000000000000000000000000000000097
:101554000000000000000000000000006c230020d8
:10156400e001000001000000000000000000000095
:101574000010070000070000107900003c7800000c
:101584007827002000000000000000000000000098
:10159400000000000000000001100500000700002a
:1015a400187900007877000066270020000000000a
:1015b4000000000000000000000000000000000027
:1015c4000810090000070000207900004878000096
:1015d400e0260020000000000000000000000000e1
:1015e40000000000000000000910090000070000ce
:1015f400287900005c7600007427002000000000b9
:1016040000000000000000000000000000000000d6
:101614000a1009000007000030790000707600000d
:10162400602700200000000000000000000000000f
:10163400000000000000000018102300040900004e
:1016440064730000846c0000f82600200000000091
:101654000000000000000000000000000000000086
:10166400f1102a0002090000d47600004c6b00003f
:101674002c270020000000000000000000000000f3
:101684000000000000000000f8101b00000700002c
:101694003879000084760000382700203d69000076
:1016a4000000000000000000000000000000000036
:1016b400001c0500040800006c7800009876000007
:1016c4006827002000000000000000000000000067
:1016d4000000000000000000321c29002009000066
:1016e4000c530000dc430000b002002000000000a6
:1016f40000000000000000000000000000000000e6
:10170400331c2900200900000c530000dc440000b5
:101714006c02002000000000000000000000000037
:101724000000000000000000ffff000000000000b7
:1017340000000000000000000000000000000000a5
:101744000000000000000000e02600201600000059
:101754000100000053414d453534204574686572dd
:1017640043415420536c61766500000074270020c7
:101774000400000001000000312e3000602700202a
:101784000600000001000000332e302e300000005f
:10179400f8260020140000000100000004000000ee
:1017a400d804000052920000010000000100000073
:1017b4006827002006000000010000000400020168
:1017c400040300007827002004000000010000004a
:1017d40089130000f400002008000000000000004d
:1017e4006e27002002000000000000002a270020cd
:1017f4000200000000000000ae27002001000000ed
:1018040000000000ac2700200200000000000000df
:10181400af2700200100000000000000b0270020d6
:101824000100000000000000fc0000204400000053
:10183400000000004001002004000000000000003f
:10184400440100201600000000000000b127002021
:1018540001000000000000007c27002004000000bc
:10186400000000005c0100205200000000000000a5
:10187400b00100202800000000000000d801002072
:1018840094000000000000001c2700200d00000050
:1018940001000000537562496e6465782030303071
:1018a400000000002c2700200c00000001000000b4
:1018b4000200000001000000040000006c0200208f
:1018c4008e00000000000000b2270020010000008c
:1018d40000000000b3270020010000000000000009
:1018e400802700200400000000000000842700205e
:1018f400040000000000000088270020040000000d
:10190400000000008c2700200400000000000000fc
:101914004027002008000000010000000100000032
:10192400000000004827002008000000010000001b
:101934000100000020010060502700200800000082
:1019440001000000010000000000000058270020f2
:1019540008000000010000000100000020011070d8
:10196400902700200400000001000000e8030000ac
:10197400942700200400000001000000010001166b
:101984009827002004000000010000000100001a54
:10199400fc0200201620000000000000b4270020f4
:1019a4000100000000000000142300204d0000008e
:1019b400000000006423002001000000000000007b
:1019c4009c2700200400000000000000a027002045
:1019d4000400000000000000a42700200400000010
:1019e400010000006426002064260020600000003e
:1019f40001000000000000000000000000000000e2
:101a040000000000000000000000000000000000d2
:101a140000000000000000000000000000000000c2
:101a240000000000000000000000000000000000b2
:101a340000000000000000000000000000000000a2
:101a44000000000000000000000000000000000092
:101a540000000000682300200400000000000000d3
:101a6400a82700200400000000000000000000007f
:101a740000000000222222222222222222222222ca
:020000040000fa
:101a8400f0b585b00023029301939a4a94899a4a47
:101a940095899a4a13809a4a1370022005f016fd1c
:101aa4000268984b1a80436803f00203002b0cbfb2
:101ab40003260126032005f009fd0368924a1380da
:101ac400426802f00202002a0cbf032201229bb2e8
:101ad4008e49088800fb02328d4909888a420bdd51
:101ae4008c4f3f880f44bb4206da0221032002f0e8
:101af4006ffe1e2005b0f0bd874f3f88ba4204dd5b
:101b0400864a12883a449342efdb7e4ab2f800e0f8
:101b1400834a128806fb02e6b1420ada7d4a128839
:101b240011448e4505da0221084602f051fe1d20bb
:101b3400e0e7b74204da794a12881744be45f2db7b
:101b4400b34202da03449e45eddb04224ff41861ec
:101b540003a803f0d5f9bdf80c30039304224ff425
:101b64001a6102a803f0ccf9042240f6a4110deb8b
:101b7400020003f0c5f9019e5e4b59885e4b5a88fa
:101b8400039b13f4106f00f0748113f4007f01d1f0
:101b94003020afe72c400bd014f0040f00f0598133
:101ba40014f0080f04d113f4806f01d03020a1e7a2
:101bb400029850b14f4d2d69854201d9362099e7dd
:101bc400584da84201d9362094e703f4c065b5f511
:101bd400c06f10d05448007800bb514a11880029c6
:101be40052d14a4a1488002c00f0b88113f4806f53
:101bf4005dd102224be1002eecd08642c0f0378149
:101c040014f0100f01d1302074e70120464c2478e1
:101c1400002ce2d013f4806f04d038e113f4806f09
:101c24000ad10020032900f01a81032a00f0198147
:101c340013f4007f04d03be013f4007f30d1002084
:101c4400022900f01081022a00f00f81032900f01c
:101c540021810c460ee0324b1c8834b12b4b1a8880
:101c6400002a40f03281012404e0284b1a88003213
:101c740018bf01222d4b1b78002b40f07581002cde
:101c840040f01481292035e7002840f013811f4ad1
:101c940012887ab113f4806f04d10222114607e04e
:101ca4000020f4e003220221f1e00322f2e0032207
:101cb400022908d1029b0f494b624b600e494b62cb
:101cc4004b600224eee00c46d4e70120184a108051
:101cd400b1fbf3f082b2174c228003fb1013002bec
:101ce40000f0c8810132134b1a80c3e10121104b6b
:101cf4001980bae1b00200206c0200207a010020b1
:101d04009801002070010020ac0100209201002005
:101d14005a020020500200204802002062020020e3
:101d240064010020000050c3f40200205c01002084
:101d3400940100208e01002004a8002340f8103de7
:101d440004224ff4806103f0dbf8009b9ab2cab11d
:101d54000232a3b246f2a71102fb0313db08904a36
:101d6400a2fb03231b0a8f4a138000228e4b1a8086
:101d74008c4b1b88002b00f093818c4b1b782bb968
:101d84001f20b7e60022874b1a80eee7884b1b78aa
:101d94003bb1884b1b8823b1874a138843f4806383
:101da40013800023854a1380854a1380854a138053
:101db400854a1380854a1370854a1370854a1380b7
:101dc400854a1385538582f84030844a13855385a8
:101dd40082f84030039a12f4007f18d00299002947
:101de40000f0a3804b097e48a0fb0303db09042b0e
:101df40017d80120714b188012f4806f07d0019b13
:101e0400994240f297806d4b1a886f4b1a80694b48
:101e14001b88b3b9734b1b88bbb904f0b5fa002017
:101e240068e65b009bb27048a0fb0303db086348d1
:101e34000380e1e75b000a22b3fbf2f3624a1380fa
:101e440084e0022005f058f8e4e7032005f054f894
:101e5400e3e730204ee630204ce630204ae63020de
:101e640048e6302046e6302044e6302042e60020b2
:101e7400cce65e4b187800283ff4edae8b1e9bb287
:101e8400012be8d9931e9bb2012be6d9002003292c
:101e94007ff40eaf029b51494b624b604e494b623b
:101ea4004b600324524b1b78002b60d1002a5ed177
:101eb40029201fe64b4a1288002aebd013f4806fc6
:101ec4007ff4f3ae02220321e1e722220124d1e6ca
:101ed400374b1b78002b40f0978000233f494b8001
:101ee4003d494b8043490b8043490b8043490b8058
:101ef40043490b80012840f0b880029bf1189e42b0
:101f0400fff4e3aeb1fbf3f082b203fb10134bb961
:101f1400511c3a4b1980374b1a80abe00121394be5
:101f240019708ce0354b1a80dce612f4806f3ff4b4
:101f34006eaf019b0b445b09294aa2fb0323db0917
:101f4400042b3ff677af01221f4b1a801e4a1b4b0e
:101f54001988138803eb5103138058e7244b1b782b
:101f64000bb92920c6e522460cb9002ab0d00121bc
:101f74000f4b19700f4b1b88002b4ad04ff4806114
:101f84000d4b1980a31e9bb2012b4ed801211d4b72
:101f9400197057e04ff48061074b1980144644e0f0
:101fa40089b5f814a201002060010020a6010020d8
:101fb400a5010020640100207a01002072010020a4
:101fc40068010020a0010020780100207c0100208d
:101fd40099010020760100206c020020b00200204c
:101fe400c55a7c0a92010020cdccccccf40200204e
:101ff4005c0100208e0100206c010020940100206f
:10200400a80100209d010020294b1c88002cc1d16f
:102014002246284b1b881bb14ff40061264b1980c4
:10202400a31e9bb2012b7ff679af931e9bb2012bab
:1020340008d80121214b19701d4b1b8813b90021ad
:102044001d4b19801e4b5c801e4b5a8000231e4979
:102054000b801e490b801e490b801e490b800128f2
:102064003ff44baf022c3ff441ae032a02d00122cd
:10207400154b1a800023184a138004a840f8103d19
:1020840004224ff4846102f03bff009c084b1b8840
:102094001bb1a3b2002b7ff44fae00220f4b1a806a
:1020a4000f4b1b78002b3ff471ae1f2022e500bfbd
:1020b40064010020920100207a0100209d0100208b
:1020c400b00200206c0200208e0100206c01002070
:1020d40094010020a8010020f8020020a2010020a1
:0420e400a601002031
:020000040000fa
:1020e8002de9f04f8bb004900c4616461d46ddf8de
:1020f80050809df854b01ffa81fa9b89c3f30322dc
:102108000692dbb20593072a00f03e821946ab69b6
:1021180093f80090b9f1000f40f04182a0f5e05328
:10212800103b9bb21f2b40f23882a0f5b0539bb2f4
:10213800b3f5007fc0f04082a0f5d0539bb2b3f551
:10214800007fc0f03c824ff23003984208bf8946b6
:1021580025e2f4b90eb198f80090079439e02146c9
:10216800284605f089f88288b24b1b7803f00e03e5
:1021780013eaa2030bd112f0380f02d01a230393eb
:1021880016e2002a0cbf05230723039310e25cb371
:10219800d1460499a1f5e053103b9bb21f2b12d9ed
:1021a800a1f5b0539bb2b3f5007f0cd3a1f5d05382
:1021b8009bb2b3f5007f06d34ff23003994202d0a9
:1021c8000023079305e0ab691b78003318bf012390
:1021d80007932f6a5fb1cdf800b0434632462146d7
:1021e8000498b8470390e3e1d1460794f1e7002e3d
:1021f80000f0a081ca4500f2a0815446072303934a
:1022080000230893049ba3f5e053103b9bb209936a
:1022180031e1102a40d0202a40f05c8110f00f0fe5
:1022280040f0a081079b5bb13288b8f800309a4231
:1022380040f09b817288b8f802309a4240f0988149
:10224800b8f800303380b8f80230738008f1040819
:10225800012308930be1022b17d8002b40f0918043
:10226800bbf1000f00f06f817b8813f00f0f05d0d2
:10227800184410f00f0f08bf08f10208c3f3031346
:1022880008eb430801230893f1e0032b04d0042b47
:10229800c4d073e0072bc1d210f00f0f40f0598162
:1022a800b8f80070079b1bb13388bb4240f05481db
:1022b800099b1f2b0ed8a7f5b0539bb2b3f5007f2f
:1022c80008d3a7f5d0539bb2b3f5007f02d3002ff4
:1022d80040f04581049ba3f5e153123b9bb2012bcf
:1022e8007bd9378008f1020801230893bfe00b2b44
:1022f8002bd943e02d2b44d021d81e2b41d018d800
:10230800152b01d01b2b39d110f00f0f40f0338162
:10231800b8f800303380b8f802307380b8f8043069
:10232800b380b8f80630f38008f108080123089351
:102338009de01f2bb0d0202b3ff470af1ee0372b51
:1023480015d9a3f51873032b18d810f00f0f40f008
:1023580018817a880732d2104146304605f000f9d4
:102368007b881b0908eb4308012308937fe0302b87
:1023780007d22e2b90d02f2b3ff450af1823039366
:1023880016e17a882c4b33f8122000f00f0e02fa6f
:102398000ef1338823ea01031bb2bbf1000f10d002
:1023a800b8f8002011400b439bb233807b88184457
:1023b80010f00f0f40f0b48008f1020801230893d1
:1023c80055e0b8f8001031ea020c40f0bf800a402e
:1023d80002fa0ef213439bb2e7e7012c1bd0082c3c
:1023e8007ff47faf154a002353611549116153608b
:1023f800144a53611161536017f0020f3ff471af33
:102408000e4a5385138582f840300e4a538513854a
:1024180082f8403065e73388bb4207d039460498d4
:1024280001f092fc0390002840f0c2800122064b84
:102438001a7056e76301002004740000b0020020ff
:10244800a08601006c020020f4020020002c62d05b
:102458007b8813f00f0f05d0184410f00f0f08bf3a
:1024680008f102081b0908eb4308182303930134f9
:10247800a4b24c4557d8e6b23146284604f0fcfed3
:1024880007462946304602f009fe584b1b7803f0f0
:102498000e03ba8813eaa203d8d0ae69002c00f064
:1024a8009180c0f30f1306eb4306a24507d0bbf19a
:1024b800000fdcd0a245dad8002c00f087803b88da
:1024c800b3f5e06f06d37a88082a3ff6a2ae02f188
:1024d8002f039bb2112b3ff417af3ff60baf052b21
:1024e8003ff44faf7ff6b7ae082b7ff6d3ae092b7c
:1024f8007ff4fdae10f00f0f40d17a880732d2106a
:102508004146304605f02cf87b881b0908eb430848
:1025180001230893abe708f1020818230393a6e701
:1025280001230893a3e7089b002b039b18bf0023f4
:1025380003933de0002303933ae00723039337e036
:102548001323039334e01823039331e012230393f6
:102558002ee0052303932be01c23039328e012238a
:10256800039325e00523039322e01c2303931fe034
:102578001c2303931ce00523039319e0052303930d
:1025880016e00523039313e0bbf1000f02d00523e7
:1025980003930de04ff0000905e0ddf81490bbf15e
:1025a800000f7ff4d6adca457ff6d9ad112303934a
:1025b80003980bb0bde8f08fddf81490efe7ddf875
:1025c8001490ece7baf1000f7ff471af069b072b6c
:1025d8003ff475afb8f80030dab205999142afd33d
:1025e800338008f102080123089340e763010020c3
:020000040000fa
:1025f8002de9f04f89b00590049115469946129c33
:102608009df84ca01ffa81fb9f89c7f30328ffb2ee
:10261800b8f1070f00f0bc81b0f5805fc0f0bf8152
:10262800d9f818301f78baf1000f1fd1bb4505d96a
:1026380011230293029809b0bde8f08f0499484627
:1026480004f01afe838813b905230293f2e79a4a25
:10265800127802f00e0212ea430214d103f00703c3
:10266800002b0cbf06231a230293e3e70697d9f839
:102678001c605eb1cdf800a023462a46049905984f
:10268800b0470290d6e706975f46f0e7059bb3f59b
:10269800805f04d2049b93b902935e4605e05f45d0
:1026a8000ad35e46002302930493cdf81c80cdf82c
:1026b8000c90ddf814901ee100230293bae7049e03
:1026c8003146484604f0d8fd43880733db109db2f5
:1026d80006f1804b0bf1ff3bd9f8182052f82b106c
:1026e80011f0010f25d021f0010632466b0811d0f8
:1026f800013b9bb201335f00e01931460b881b0a8e
:10270800238031f8022f43ea022324f8023ba04237
:10271800f4d1f21915f0010f00f02581238803f494
:102728007f432380128843ea1223238000230293e5
:1027380080e70a8822804a8862809bb21a1f043187
:10274800201d04f00dff0023029373e7079b072b5e
:1027580000f04581bdf8183024f8023bc7e0bef10f
:10276800100f31d0bef1200f40f04c8118f00f0f40
:1027780040f0028132f8103023804b8863800434a3
:1027880001230493b3e0022b15d8002b6ed1baf1c4
:10279800000f00f0eb806b8813f00f0f04d0984403
:1027a80018f00f0f08bf0234c3f3031304eb4304fc
:1027b800012304939be0032b06d0042bd6d01823c7
:1027c800029337e7072bd1d218f00f0f40f0d180d2
:1027d80032f8103024f8023b0123049387e00b2bd6
:1027e800edd818f00f0f40f0cd806a880732d2106c
:1027f800204604f0b5fe6b881a0904eb420413f076
:102808000f0f00f0a38023782380012304936ee048
:102818002d2b2bd01cd81e2b28d014d8152b01d02b
:102828001b2bccd118f00f0f40f0a98032f81030d4
:1028380023804b8863808b88a380cb88e38008340f
:102848000123049353e01f2bbed0202b8ed0b6e774
:10285800372b04d9a3f51873032bc2d9afe7302b54
:1028680004d22e2bb0d02f2b80d0a8e708f00f0e63
:102878006b88124931f8133003fa0ef39bb232f821
:102888001020bef1000f01d1002020802088baf16d
:10289800000f0bd01340034323806b88984418f033
:1028a8000f0f50d102340123049320e0134043fa60
:1028b8000ef303432380f0e7630100200474000053
:1028c8006b8813f0f00f0ad00023194624f8021f72
:1028d8000133dbb26a88c2f303129342f6dbab889a
:1028e80003f00703002b0cbf06231a2302930136bb
:1028f800b6b2b74230d3002e58d0b9f5805f55d361
:10290800f5b20399284602f0c9fb80462946039888
:1029180004f0b2fc0546504b1b7803f00e03828886
:1029280013ea420351d118f00f0f00f092806b8820
:1029380013f00f0fc4d0984418f00f0fc0d1002324
:1029480063800234bce701230493d0e70123049396
:10295800cde701230493cae7049b002b029b18bf11
:102968000023029366e60023029363e6182302938a
:1029780060e6052302935de6052302935ae60523e4
:10298800029357e60523029354e60523029351e682
:10299800baf1000f3ff44aae052302934ae6baf1b2
:1029a800000f3ff443ae0523029343e6f1b20398c8
:1029b80004f062fc0546284b1b7803f00e0382885e
:1029c80013ea420343d04ff00008b34504d0baf1ec
:1029d800000f8cd0b3458ad8002e3ff4b7ae039bc6
:1029e8009a69c8f30f1002eb40012b88b3f5e06f2a
:1029f80008d3b5f802e0bef1080f3ff6b0ae0ef10d
:102a08002f039bb2112b3ff40daf3ff601af052bff
:102a18003ff42caf7ff6b7ae082b7ff6d3ae092b69
:102a28007ff4ddae18f00f0fafd16a880732d210ed
:102a3800204604f095fd6b881a0904eb420413f054
:102a48000f0f86d023782380012304934fe74ff09c
:0c2a58000008002323806ae763010020cf
:020000040000fa
:102a640038b50188052902d80623184638bd04461e
:102a7400063989b2c388013b052b00f20e81dfe8d9
:102a840003f00339506eb8c7a84b1b8813b148f242
:102a940004036fe00c306289238943ea024302464f
:102aa40004f0b2fb03460021a14a116047f6957277
:102ab400904205d801219f4a11609f4a1060bce0f2
:102ac40047f6fa72904200f2f080002299490a60b7
:102ad40099490a600121954a118000220621a171b9
:102ae400e271a3f5ff43163b2381a272e2722170c7
:102af4006270b6e08d4b1b8813b148f2040339e0d1
:102b04004289038943ea02420c3004f01ffd031e8c
:102b140047f6fd72002808bf13460021854a11605c
:102b240087e0824b1b8823f004039bb2022b02d064
:102b340048f204031ee04289038943ea02437d4ac2
:102b44001268934202d048f2050313e00c3004f0fb
:102b5400d3f8034600286cd147f6fd73ace0734b01
:102b64001a88012a30d047f6fe7348f20401042a79
:102b740018bf0b4613f4004f00f0b5800022052166
:102b8400a171e2712381a272e27206232370627042
:102b940004f10c01a38913f0ff0f00f0c28013f4b9
:102ba4007f4f00f0c08002235a0831f8122012f03f
:102bb400ff0f00f0a48012f47f4f00f09c800233da
:102bc400dbb2202bf0d19ce05b4d00f10c012868b6
:102bd40004f0f6fb03462a6855490a6047f69571e6
:102be40088425dd802442a6052490a6801320a6068
:102bf40023e04e4b1b8813b948f20403bae740891b
:102c0400238943ea004004f0bdfd47f6ff73b1e7b2
:102c1400464b1b88012b04d0042b02d048f204033a
:102c2400a8e704f10c02424b1968208904f03afe2b
:102c3400034647f69572934232d83e4a12680321fe
:102c4400a1710021e1712281120c62819a1d2280fe
:102c54003a4a12880c3a93420cbf01220422334ba5
:102c64001a80374b1d78002d4fd0a388c3f30b0374
:102c7400a380344a127812f0070f02d10121314a9d
:102c8400117030490a7843ea0233a38001320a7092
:102c9400204602f0d3fa0023e7e648f20403c8e72b
:102ca40047f6fa7293427ff618afa3f5ff427c3ad7
:102cb40092b2012a3ff65eaf1e490a68501c0860b2
:102cc40000210420a071e1712281120c628106228c
:102cd4002270617047f6fd7293420cbf02220022fb
:102ce400124b1a80bde70025104b1d80204604f0ce
:102cf40059fd2b46b9e60133dbb21f2b01d807334c
:102d040023800022094b1a80abe74021204603f0c0
:102d1400adf8034600283ff4a8ae0b4b1c602b46cd
:102d2400a3e60023ebe70123e9e700bf4801002005
:102d3400540100204c0100204401002050020020d6
:0c2d44009c010020d8010020500100205c
:020000040000fa
:102d5000f0b585b0044600238df80f30058905f0e5
:102d60007f05052d06d00388072b09d806231846b2
:102d700005b0f0bd0388092b00f2a4800623f6e716
:102d8000032d00f09f80052d00f09c80012d21d0a7
:102d900003238df80f309df80f1000220a232370b3
:102da0006270238923f07f0343f007032381a2721b
:102db000e272914b53f82130e360904b1a8002216c
:102dc000204603f055f803460028d0d08c4b1c60f9
:102dd0000023cce78389052b01d90221f0e7894d37
:102de00000686168a26807c5a2892a8013f0ff0302
:102df0000ed10025814b1d8004f10c06e8b203f0d2
:102e000055fc26f8020f0135052df7d1122322e0db
:102e1000013bddb2794b1988002934d07a4b1a88ee
:102e20000c3a92b204f10c0378480088adf80c001b
:102e30000139724801800df10f01009103a9284664
:102e400002f09efdbdf80c20704b1a806e4b1b8863
:102e5000063b1b1a9bb223809df80f30002b9ad1a2
:102e6000238923f07f0242f002022281634a128802
:102e70006281002a00f0bd8023f0ff0343f082034b
:102e8000238182219ce7284603f010fc4ff48053f5
:102e9000adf80c305c4b1988a1f10e0292b204f12e
:102ea0000e034000904209dd0c398eb2811a701e6b
:102eb000014491fbf6f151480180bce700204f49e5
:102ec0000880b8e7a38998b2adf80c30b0f5805f00
:102ed00003d205238df80f305de704f083fa07462f
:102ee000002800f08280032d0bd0e689f6b204f0b2
:102ef00033fd4388dbb29e4234d911218df80f1087
:102f00004be704f029fd0368c4f80e3000233a466d
:102f10001946bdf80c0001f03dfe00f10c0292b222
:102f2000394b1b88063b9a4210dd0c229df80f306e
:102f3000002b7ff430afa372e3722280238923f049
:102f40007f0301351d432581022139e704f1120376
:102f50003a460021bdf80c0001f01cfe00f10c0205
:102f600092b2e3e73146384604f08af903682361f8
:102f70008388a382e389dbb2e381384604f0ecfc6a
:102f80004388c3f30323083b9bb2012b10d90023d2
:102f90003a463146bdf80c0001f0fcfd00f110028c
:102fa00092b2194b1b88063b9a4212dd1022bde7f4
:102fb000002eecd1164a166850689168c4f8166065
:102fc000c4f81a00c4f81e10127b84f822201c22b8
:102fd000ace704f116033a463146bdf80c0001f0a7
:102fe000d9fd00f1100292b2a0e708238df80f304e
:102ff000d1e60221e4e600bff4640000342300209f
:10300000400100204823002050020020142300200b
:043010001c27002059
:020000040000fa
:1030140038b5824b1b78002b5fd0814bb3f900305d
:10302400002b4ed17f4b1b88c3f30714242b2bd0ca
:1030340010d8123b012b00f2ca807b4b1b7803b3e0
:1030440000f0b0ff794b1b78002b00f0e280784b46
:103054001d88bde0482b40f0ba80764b1b781bb32b
:10306400754b1b78002b00f0bd80744b1b78002b34
:1030740040f0cb80724b1b88002b0cbf1a251b25fc
:10308400b1e004f02dfcdbe7674b1b784bb101f09a
:103094005ffe664b1b78002b00f0bd80644b1d88df
:1030a40096e004f05dfcf2e7654b1d88002d40f0ce
:1030b400ae800122634b1a7008248be004f054fca8
:1030c40096e0584b1b88242b47d007d8123b012b82
:1030d40000f28580544b1b7823bb38bd482b7ed12e
:1030e400514b1b78002bf8d0524b1b78002b55d03a
:1030f400554bb3f90030002befdd544ab2f90020f0
:103104009a42eadb0023504a1380504a1380464a0d
:10311400137004f027fc002839d10122494b1a709e
:10312400082429e00022404b1a7004f015fc0546df
:1031340060b90122464b1a703a4b1c7814f00f0404
:1031440003d00022354b1a705ae038bdff28c4d092
:1031540004f0c6fb00f026ff38bd334b1b78002b70
:10316400bbd00022304b1a703a4804f0f7fb38b950
:103174000122394b1a7004240025284b1d703fe0ae
:10318400ff28aad004f0ecfb01f0e2fd38bdff28d3
:10319400a3d004f0e9fb04f0affa38bd284b1b8838
:1031a4001bb1264b1b78002b97d000221e4b1a70a4
:1031b40004f0d8fb20b90122224b1a700824dbe763
:1031c400ff288ad004f0d0fb04f096fa38bd00251d
:1031d400002c82d00022114b1a708db10ee0002514
:1031e4002c46f5e72d25104b1b78002b3ff466afda
:1031f40004f082fa8cb10022084b1a7044f01004d7
:103204002946204602f0bcfa38bd1a25ebe71b25f7
:10321400e9e70125eee70125ece738bd9001002040
:103224009a0100205e010020620100206a01002052
:10323400660100209d0100207c01002098010020ef
:10324400640100209e010020760100206e01002010
:0c325400460200207a010020a4010020a6
:020000040000fa
:10326000854b1a8841f6fe739a4201d814207047a4
:1032700070b50446002004f02bf9436813f4803f36
:1032800000f0f18003f00c02042a01d0162070bd7a
:1032900013f0020f00f0e9800268130c223b9bb28e
:1032a000de2b00f2e480a2f580539bb2b3f5805f81
:1032b00080f0df80012004f00bf9436813f4803fb5
:1032c00000f0cf8013f00c0f40f0c38013f0020f1a
:1032d00000f0c1800268130c223b9bb2de2b00f28f
:1032e000bc80a2f580539bb2b3f5805f80f0b780bd
:1032f000032c14d8022c51d8604b1b78a34240f207
:1033000094805f4e5d4d204604f0e2f843683360e0
:103310000134e4b22b78a342f5d8002070bd01221d
:10332000584b1a70032004f0d3f803681a0c406855
:1033300010f4803f2ad0002a79d0534909888a4264
:1033400005d00321032001f045fa1e2070bd00299d
:103350006fd0042a6fd810f00c0f6ed19bb24b4a7d
:103360001178022905d04a4a12889a4207d00221d0
:10337000e8e7a3f580539bb2b3f5805fe2d210f08b
:10338000020fb7d000223f4b1a70b3e7002a56d184
:103390003d4b1b88002badd00321d3e7022004f066
:1033a00097f803681a0c406810f4803f35d0002a63
:1033b00047d0384909888a4205d00321022001f00c
:1033c00009fa1d2070bd00293dd0042a3dd800f027
:1033d0000c02042a01d00421f0e79bb22b4a117899
:1033e000022914d1a3f580539bb2b3f5805fe5d2d7
:1033f00010f0400f14bf01220022274b1a7010f06a
:10340000020f3ff479af00221e4b1a7074e7234a73
:1034100012889a42ecd00221d0e7c2b91d4b1b881a
:10342000002b3ff469af0321c8e7002070bd0421e1
:1034300088e7032186e7032184e7042182e703214b
:1034400080e70421bae70321b8e70321b6e70321a7
:10345000b4e7162070bd162070bd162070bd162072
:1034600070bd162070bd162070bd162070bd1620d0
:1034700070bd162070bd00bf96010020aa0100207b
:103480007c2700205c0100209201002063010020c5
:10349000ac01002064010020a60100207001002082
:020000040000fa
:1034a00010b56e4b1978c9b96d4a138801339bb2b8
:1034b0001380322b05d0642b03d0962b01d0c82b60
:1034c00012d1684a127802f00f02013a072a4dd849
:1034d000dfe802f0113b473f4c4c4c430122624b6a
:1034e0001a700022614b1a70604b19785e4b187885
:1034f00002f0edfa10bd00205d4a1070c82b39d0e3
:103500005c4b1b7813f0200feed013f01f0202d09b
:1035100051000139c9b2584a12789a4276d013f054
:10352000800f14bf00220122504b1a700122534b0e
:103530001a80504b1a78504b1a70494b1b88c82b75
:10354000d2d10022464b1a80cee74020484a107064
:10355000d4e74120464a1070d0e70120444a107059
:10356000cce76023424a13700a460de00020404a2f
:103570001070c3e73e4b1b7813f01f021dbf5200b3
:1035800002f1ff32d2b20a463d480078984217d085
:1035900013f0800f14bf00220122334b1a70012256
:1035a000384b1a80324b1a78354b1a70314b1b78d6
:1035b00013f0200fa9d12a4a1288c82aa5d093e770
:1035c00010f0400f1dd0284c2378b3fa83f35b0929
:1035d0002370002ae6d02b4c238801339bb2238032
:1035e00094b2a342ded910f0800f14bf012400244e
:1035f0001d48047005329342d4db0022214b1a800f
:10360000d0e700f00100184b1870cbe713f0400f23
:103610001fd016480278b2fa82f2520902700029cd
:1036200087d016480288013292b2028088b2824264
:103630007ff67faf13f0800f14bf012000200b4beb
:10364000187005318a42fff674af00220b4b1a80c6
:103650006fe703f00103054a13706ae79e0100203b
:10366000ac2700206301002030010020240100204d
:1036700074010020ab010020af2700206e2700203e
:08368000b02700202a270020da
:020000040000fa
:103688004ff086439b7d002b00f0bf8010b54ff0b4
:103698008642536803f00703127e12f0040f37d0f6
:1036a8004ff08642906a594a5169d26891422fd2a6
:1036b8007bb9564b5a684c1c5c6150544ff086439a
:1036c8001b7e13f0010f46d001224ff086431a7576
:1036d8002ae04e4b5a684c1c5c6122f811004ff0ee
:1036e80086431b7e13f0010f35d001224ff086432d
:1036f8001a75464a93699268934242d2434a1168be
:10370800581c906131f813204ff086439a6218e0f4
:103718004ff08642127e12f0010f1cd001214ff0ab
:1037280086421175002be4d1384a93699268934216
:103738001bd2364a1168581c9061ca5c4ff0864308
:103748009a62324b9a699b689a4227d02f4b5a69e2
:10375800db689a424cd04ff086431b7e13f0020f71
:103768003dd02b4b1b7833bb10bd284b1b69002b5e
:1037780045d0ff214ff086429162013b234a1361f5
:10378800dfe7224b1b69002b39d04ff6ff714ff052
:1037980086429162013b1d4a1361d2e71b4b1b69ac
:1037a800002bd3d101221a4b1a704ff086431b7e8f
:1037b80013f0020f17d0154b5a69db689a4212d1e1
:1037c800124b00221a7707204ff0864108751049de
:1037d8000a701b6a002bc7d00c4a506a98470c4bda
:1037e8001b78002bc0d002224ff086439a7510bd7b
:1037f8004ff0864301229a7504221a75abe7034bf2
:103808009a699b689a42a1d1cce77047c000002012
:04381800292700203c
:020000040000fa
:10381c0030b40d46002956d0002854d05049097fa9
:10382c00002940f099804ff08644646804f0070446
:10383c00012c4ed04a4908604a6000244c618c61ce
:10384c000c6100284fd08d60002a50d0444ad360c0
:10385c000121434a11774ff08642127e12f0040f79
:10386c0006d04ff08642916a117e11f0040ffad106
:10387c004ff086414a8b92b242f004024a830a7e90
:10388c0042f080020a76364ad1689268914202d997
:10389c008c1a334d2c614ff08644646814f0070f7a
:1038ac0035d12f4989698a4225d900784ff0864253
:1038bc00906201312a4a9161002b45d101214ff0d0
:1038cc008643997549e0002b44d0002aa6d10021eb
:1038dc0043e015b115f0010f3fd1002baad013f026
:1038ec00010fa7d039e000241d498c60ace7002102
:1038fc001b4ad160ace71a4a1269002adcd0ff20bf
:10390c004ff086418862013a15490a61d4e75208a2
:10391c00134ca26025696d0825614908e160a16915
:10392c008a4206d900884ff0864290620131a1612b
:10393c00c2e7002dc0d04ff6ff714ff08642916266
:10394c00013d074a1561b7e704224ff086439a758b
:10395c00012102e0002100e00021084630bc704744
:04396c00c000002077
:020000040000fa
:103970002de9f04784b082460f46914600238df82a
:103980000b300193adf80c10adf80e2003a94ff4e5
:10399000447002f081fb4ff00043039303a94ff4fe
:1039a000457002f079fb07f0030709f003063e4477
:1039b00016f0030f04d0331d03f00c039e1bf6b268
:1039c00002238df8043000238df8053020238df874
:1039d000063003f025fe384c6368db689847002802
:1039e000fad1354b5b685b68032101a89847324ade
:1039f000137a002bfcd000222f4b1a721c466368ee
:103a0000db6898470028fad100252b4c4ff00108bd
:103a100010e063685b6841460df10b009847237a1c
:103a2000002bfcd0002323726368db6898470028d2
:103a3000fad10135af42ecd109f1ff339bb2b9f1b4
:103a4000000f19d00af1ff359a441b4c012715f8d5
:103a5000013f8df8043063685b68394601a89847d8
:103a6000237a002bfcd0002323726368db6898471d
:103a70000028fad1aa45ead100250f4c012713e00e
:103a80009df80b308df8043063685b68394601a8f7
:103a90009847237a002bfcd0002323726368db68ed
:103aa00098470028fad10135ae42e9d103f0aefdc6
:0c3ab00004b0bde8f08700bf0c27002028
:020000040000fa
:103abc0030b583b04ff48033019302f0d9fc494bfd
:103acc001b78002b39d102f099ff044610f0010f3e
:103adc004cd0454b1b78002b37d010f0100f5dd11c
:103aec00414b1b78002b59d13e4b1b781bb3019bd0
:103afc0013f4803f55d014f4007f5ad1019b13f47a
:103b0c00003f61d0394b1b7883b902f099fd374bdc
:103b1c001b78002b5dd0019b43f0007301930422b2
:103b2c0040f60c010deb020001f078ff02f066ff8d
:103b3c0010f4807f52d103b030bd042240f60c014a
:103b4c000deb020001f0d8f9bde7002502a840f802
:103b5c00085d04224ff4907101f0cef924f01104a9
:103b6c00a4b229469df80000fcf786fb14f0100f58
:103b7c00b6d01d4b1b788bb91d4b187810f0100f5d
:103b8c00b2d120f01003012baed024f01004a4b25b
:103b9c00002100f00f00fcf76ffba1e7fff734faf0
:103bac00a2e7134b1878002100f00f00fcf764fb20
:103bbc00a1e710480023036004220f4b198801f081
:103bcc002dff01f001fc99e7084b1b78002badd0c1
:103bdc009be7019b23f000730193a0e700f076fdb7
:103bec00a9e700bf460200209001002064020020db
:0c3bfc0063010020800100205a0200201c
:020000040000fa
:103c08002de9f04784b082460f46914600238df88f
:103c18000b3001930093adf80c10adf80e2003a9fa
:103c28004ff4427002f034fa4ff00043039303a9b3
:103c38004ff4437002f02cfa07f0030709f003066b
:103c48003e4416f0030f04d0331d03f00c039e1bf3
:103c5800f6b203238df8043000238df805300423d1
:103c68008df8063003f0d8fc364c6368db6898475b
:103c78000028fad1334b5b685b68032101a8984799
:103c8800304a137a002bfcd000222e4b1a721c46a5
:103c98006368db6898470028fad10025294c4ff063
:103ca800010810e063689b6841460df10b009847d6
:103cb800237a002bfcd0002323726368db689847c3
:103cc8000028fad10135af42ecd109f1ff339bb29c
:103cd800b9f1000f19d00af1ff359a44194c0127a0
:103ce80063689b68394668469847237a002bfcd05e
:103cf800002323726368db6898470028fad19df88f
:103d0800003005f8013faa45ead100250d4c0127ee
:103d180010e063689b6839460df10b009847237ad9
:103d2800002bfcd0002323726368db6898470028c7
:103d3800fad10135ae42ecd103f064fc04b0bde821
:083d4800f08700bf0c270020ea
:020000040000fa
:103d5000222913d8dfe801f086144e6a12121212db
:103d60001212121212121212121212121212121233
:103d7000121212121212121212123c00122070476a
:103d800041f63243984205d041f6334398420ed073
:103d900012207047374b1b88002b65d0364b9b8910
:103da00003f00203002bd4bf122000207047334bd6
:103db0009b8913f0020f59d02e4b1b880bb1122098
:103dc00070472f4b1b88002b0cbf12200020704720
:103dd00041f63343984201d012207047274b9b890c
:103de00013f0020f44d0234b1b88002b0cbf122072
:103df0000020704741f63243984205d041f63343e4
:103e000098420ad0122070471b4b9b8903f0040391
:103e1000002bd4bf122000207047184b9b8903f061
:103e20000403002bd4bf12200020704741f6324318
:103e3000984205d041f6334398420ad01220704789
:103e40000d4b9b8903f00803002bd4bf12200020e8
:103e500070470a4b9b8903f00803002bd4bf122044
:103e600000207047002070471220704712207047d2
:103e70001220704764010020b00200206c02002074
:043e8000920100208b
:020000040000fa
:103e840030b583b002a8002340f8043d0422114653
:103e940001f036f8019b2a4c1a0a22701b0c9b0273
:103ea40003f6ff73274a138003f08cf823784bb191
:103eb4000024234d204602f0e9ff0134e4b22b78bc
:103ec400a342f7d801f054f900241f4b1c701f4b78
:103ed4001c701f4b1c701f4b1c701f4b1c701f4b06
:103ee4001c701f4b1c701f4b1c801f4b1c801f4bd6
:103ef4001c801f4b1c801f4b1c801f4b1c801f4ba6
:103f04001c701f4b1c701f4b1c801f4b1c801f4bb5
:103f14001c801f4b1c8001201e4b1870214601f091
:103f24002ffc1d4b1c801d4b1c701d4b1c7002f084
:103f3400fdff03f0d7fb204602f070ff03b030bd55
:103f4400aa010020960100209c01002062010020ab
:103f540090010020980100209e010020a40100206f
:103f6400a6010020a20100206001002068010020b9
:103f740072010020a0010020780100209d01002092
:103f84006a010020660100207a01002064010020fb
:103f940092010020630100205e010020ab0100209b
:043fa400a501002053
:020000040000fa
:103fa80030b583b00020364b187002f06dff012049
:103fb80002f06aff334b1868002853d003f0f0fb77
:103fc800314b186828b12f4b1b68984201d003f079
:103fd800e7fb2e4b186848b12a4b1b68984205d05e
:103fe800294b1b68834201d003f0dafb01f06cfd1a
:103ff80003f04efa0024264b1c60224b1c60234b16
:104008001c60214b1c60234b1c7002ad45f8044d0d
:10401800042240f60c01284600f070ff019b23f0b3
:1040280000730193042240f60c01284601f0f8fcc5
:10403800194b1c70194b1c70194b1c70194b1c70b8
:10404800194b1c70194c204603f0f0f810b103f01e
:10405800a7fbf8e7164c204603f0e8f858b103f040
:104068009ffbf8e7084b18680028b0d1074b186881
:104078000028b5d1bae702f057ff03b030bd00bf42
:1040880046020020680200204c0200205402002052
:104098005c02002064020020450200205802002033
:1040a8006102002060020020d801002010020020d8
:0440b800dc01002007
:020000040000fa
:1040bc0038b5364b1b7813b902f020fb38bd02f033
:1040cc0071fe10f4806f1dd0314b1b782bb1314b2e
:1040dc001b7813b10022304b1a80304b1b8d13b15f
:1040ec00013b2e4a13852d4b1a8d2d4b1a8501221f
:1040fc002c4b1a7000222c4b1a802c4b1b7863b360
:10410c0001f01cfe254b5b88012b38d0284b1b780b
:10411c002bb1234b5b88012b34d0222b32d002f0f5
:10412c0041fe10f4806fc7d01c4a538d01339bb2f3
:10413c0053851b4a53851f4d1f4c0422298820464a
:10414c0003f017fa29881d4b1b88194404390422e3
:10415c0089b2204603f00dfaaee7164d164c042238
:10416c002988204603f005fa2988144b1b8819442a
:10417c000439042289b2204603f0fbf9c2e702f0ad
:10418c009dfec3e702f0fcf8c9e700bfa5010020c3
:10419c007c0100209d010020a8010020b00200201d
:1041ac006c02002098010020600100209e0100207c
:1041bc00a401002070010020800100206401002077
:020000040000fa
:1041cc0008b50022344b1a80344b1b78002b3dd0a1
:1041dc00334b1b781bb1334a138801331380324b9a
:1041ec001b883bb3314a128893421dd2304b1b883b
:1041fc00002b2ed02f4b1b8d2f4a12899a4219d38c
:10420c0003332c4a138515e00023284a13802b4acc
:10421c0013850fe002f0b4f8294b1b88012b15d144
:10422c000022204b1a8011e0214b1b880bb301326a
:10423c001e4b1a8002f042fe194b1b7833b1204bf7
:10424c001b881bb1174a12889a42e3d002f056fa27
:10425c0008bd1c4a1288002aecd0002bead1174b5f
:10426c001b8d154a12899a4207d30333134a1385bf
:10427c0003e0144b1b88002bd9d002f093fd10f4f3
:10428c00006fc1d1094b1b88074a12889a42d1d3bf
:10429c000133064a1380cde7680100209d01002000
:1042ac00a40100206c01002094010020a801002032
:1042bc0064010020b00200202c2700206c0200209a
:0842cc008e0100209201002088
:020000040000fa
:1042d4002de9f04f83b0009001913d4b1d88002dd6
:1042e40068d04ff000094d469a464ff0010b07e0a5
:1042f40009f101091ffa89f9baf800304b4559d977
:104304000aeb4903588803f06bf80646002840d0ae
:1043140083691f88002febd00137bfb25c46d6f803
:1043240018803146e0b200f0bbfec0f30e1018f85e
:1043340010302b449db20134a4b2bc42efd1d7e774
:104344000af1010a1ffa8afabbf8003053451ed954
:104354000beb4a03588803f043f8064638b38369e5
:104364001f88002fecd00137bfb20124d6f8189073
:104374003146e0b200f094fec0f30e1019f810308c
:104384001d44adb20134a4b2bc42efd1d8e7002041
:1043940003e04ff0000845462520eb1ddb10009a92
:1043a4001380019ba3f8008003b0bde8f08f0025c3
:1043b4002420f2e7ec1dc4f3cf08064b188828b17b
:1043c4004ff0000a5546dff80cb0c1e70546e4e7b4
:0843d400942700209827002027
:020000040000fa
:1043dc00534d206f757470757420706172616d65ca
:1043ec007465720053796e6368726f6e697a61746a
:1043fc00696f6e2054797065004379636c65205445
:10440c00696d65000053796e6368726f6e697a61cd
:10441c0074696f6e20547970657320737570706f4a
:10442c0072746564004d696e696d756d20437963b6
:10443c006c652054696d650043616c6320616e642a
:10444c0020436f70792054696d65000047657420b6
:10445c004379636c652054696d650044656c6179c2
:10446c002054696d650053796e6330204379636c19
:10447c00652054696d6500534d2d4576656e74202d
:10448c004d6973736564004379636c652054696d81
:10449c006520546f6f20536d616c6c0053686966b6
:1044ac00742054696d6520546f6f2053686f72745b
:1044bc0000000000000000000000000000000000f0
:1044cc0000000053796e63204572726f7200ff001a
:020000040000fa
:1044dc00534d20696e70757420706172616d6574d6
:1044ec0065720053796e6368726f6e697a61746974
:1044fc006f6e2054797065004379636c6520546944
:10450c006d65000053796e6368726f6e697a6174c1
:10451c00696f6e20547970657320737570706f724b
:10452c00746564004d696e696d756d204379636cbb
:10453c00652054696d650043616c6320616e642075
:10454c00436f70792054696d650000476574204392
:10455c0079636c652054696d650044656c617920e4
:10456c0054696d650053796e6330204379636c65d3
:10457c002054696d6500534d2d4576656e74204d44
:10458c006973736564004379636c652054696d6568
:10459c0020546f6f20536d616c6c005368696674a6
:1045ac002054696d6520546f6f2053686f727400ce
:1045bc0000000000000000000000000000000000ef
:1045cc00000053796e63204572726f7200ff000019
:020000040000fa
:1045dc000022374b1a74374a03f500639a621a4665
:1045ec00536813f0100ffbd14222334bc3f88420d5
:1045fc001a46d2f8843013f0400ffad02f4b002219
:10460c009a6377225a631a46d36b13f0040ffbd1cb
:10461c0002222a4b83f830201a46d36b13f0020f78
:10462c00fbd1264a136c03f00303032bfad10122ae
:10463c00234b5a711a46d37813f0010ffbd0214a41
:10464c001d4b1a621a46536813f0040ffbd11e4a15
:10465c00194b5a621a46536813f0080ffbd14122ca
:10466c00154bc3f890201a46d2f8903013f0400f37
:10467c00fad04122104bc3f8a4201a46d2f8a43029
:10468c0013f0400ffad041220b4bc3f808211a4605
:10469c00d2f8083113f0400ffad0094b6ff07f427b
:1046ac001a6144f2ff725a6101221a62704700bf0c
:1046bc000014004006013000001c004000100040b7
:0c46cc0000080040070101000701020087
:020000040000fa
:1046d80030b583b002a8002340f8043d0422334bd0
:1046e800198800f00bfc019ca3b20193304b1b7896
:1046f800012b0ad02f4b1b7813b92f4b1b78cbb14a
:1047080001222e4b1a7003b030bd0a2003f040f886
:1047180005460028eed00021016004230380a9800b
:104728000123c3800723038101f09efb284603f081
:1047380037f8dfe70022214b1a70214b188806341e
:10474800a2b2824228bf0246144603f021f81d4b4c
:104758001860c0b12246154b198800f0cffb02a89b
:10476800002340f8083d042240f6040100f0c6fb8f
:10477800009b0093009b13f4006f08d1114b18683d
:1047880001f03cfebfe701220c4b1a70bbe70e4854
:1047980000230360054b1988094b1b881944043909
:1047a800042289b200f0aafbe8e700bf4802002013
:1047b8004402002045020020610200205802002027
:0c47c800620200205c0200208001002042
:020000040000fa
:1047d40038b505460c4603f0b1f808b30246611e2d
:1047e400c9b201eb85005388dbb243ea00239bb2d4
:1047f4005380022d15d0032d39d000211171517130
:104804009171d171002111706ff05f01517023f02b
:10481400ff032a4909780b435380104601f03afdff
:1048240038bd0329eed8dfe801f002020c110021a3
:104834001171102151714ff0ff3191711f21d1710c
:10484400e0e71f4909889180d180dbe71c4909888a
:1048540039b100210a201071517101209071d17178
:10486400d0e70021117151719171d171cae7032907
:10487400c8d8dfe801f002020c11002111711021e7
:1048840051714ff0ff3191711f21d171bae70d4978
:1048940009889180d180b5e70a49098839b1002196
:1048a4000e201071517101209071d171aae700217d
:1048b400117151719171d171a4e700bf630100209e
:0848c4006401002092010020b4
:020000040000fa
:1048cc0038b5059c602954d000293bd0258905f4c6
:1048dc007f45258100284ed1e088c0f30b0040f4c1
:1048ec004050e080402925d104990139032910d882
:1048fc000a232370002363709df81030c3f1040366
:10490c0042f0030242ea830245f04005154325813b
:10491c0043e00499994298bf049b0a332380bdf865
:10492c001030a381049b1b0ce38142f04102154320
:10493c00258132e00a2323700023637045f0600563
:10494c0025812ae0b8b9e388c3f30b0343f4405341
:10495c00e3800a23237000236370238943f0200330
:10496c0023811ae0e388c3f30b0343f44053e38041
:10497c0013e00028f6d00a23237000236370e38829
:10498c00c3f30b0343f40053e380238943f0800308
:10499c002381064b53f82030e3600221204601f0be
:1049ac0061fa10b1024b1c6038bd38bdf4640000d4
:0449bc004001002096
:020000040000fa
:1049c00010b582b02a4a20241480002353805360fb
:1049d00044f21f0090812749116153619383136250
:1049e0001385538582f84030234a148053805360e6
:1049f000908111615361938313621385538582f80b
:104a000040301e4a137002f069fb20bb00231c4a91
:104a100013701c4a13701c4a13801c4a13701c4ae2
:104a200013601c4a13601c4a13601c4a136002a8de
:104a300040f8043d0422082100f064fa019b13f0c1
:104a4000080f0bd00022164b1a704ff47a62154be8
:104a50001a6002b010bd02f075fcd7e70122104bbe
:104a60001a7004224ff411610f4800f04bfaece782
:104a7000b0020020a08601006c020020f402002099
:104a80002c2300202d2300205e2300206023002003
:104a90003c2300201823002028230020402300204e
:0c4aa0008c010020f8000020f400002031
:020000040000fa
:104aac00002966d02de9f0470e4633490f68b7f55b
:104abc00802f47d215460446304b186806eb000889
:104acc00b8f5005f41d9c0f50052dff8b8a0caf8bc
:104adc000020dff8ac902146484402f03ffddff89f
:104aec009c804ff40053c8f800304946384601f01a
:104afc00a6ff214a1368d8f800100b441360daf8ab
:104b0c0000100023c8f80030761ab6b232462144a1
:104b1c00484602f023fdc8f80060184b1b68b3f53b
:104b2c00005f03d075b9b3f5005f18d3124c14496c
:104b3c00206801f084ff114a236811680b4423603c
:104b4c00002313600020bde8f087324621460c4b51
:104b5c00184402f003fd094bc3f80080dde7c3f5f0
:104b6c00005208490a60ff210548184402f01efe55
:104b7c00dce70020704700bf842700208827002036
:084b8c00fc0200208c27002030
:020000040000fa
:104b94002de9f04184b01e465469e9b10f4693896a
:104ba400c3f30323072b17d0092b24d0002e5ad08c
:104bb4002e4b6c460fcb07c4237039460df1090008
:104bc40002f0d6f86b4607cb30607160b2601b7898
:104bd40033734ff00c080ae0204602f0f3fd1ffa8d
:104be40080f826b142462146304602f0bbfc4046de
:104bf40004b0bde8f0811ffa81f8204602f0e2fd1e
:104c040001302518b8f1000fd0d0235c0233dbb299
:104c1400012bcbd9b8f1010f10d001240134a4b277
:104c2400284602f0cffd01300544a045bed32b78c1
:104c34000233dbb2012bb9d9a045efd1284602f0eb
:104c4400c1fd1ffa80f846b1b8f1000fb0d042465a
:104c54002946304602f086fcc9e7b8f1000f08bfc8
:104c64004ff00c08c3e74ff00c08c0e71c270020e6
:020000040000fa
:104c74002d4b1b78002b56d02de9f04782b01746f8
:104c84000d468146294b1e683389dbb203f0e00ae6
:104c940003f01004baf1400f0fd04ff000080022c7
:104ca400214b1a70019600954346224651464846c8
:104cb400fff70afe02b0bde8f0871d4bb3f8008091
:104cc400a8f110081ffa88f888450bd34b1e032b54
:104cd40020d806f10c008242e1d00a46394602f09f
:104ce40041fcdce70123134a1370134a1370134b7e
:104cf4001c70134b19606022124b1a70124b1f6008
:104d04004246394606f1100002f02cfc0f4bc3f862
:104d14000080c4e706f110008242c0d00a4639463a
:104d240002f020fcbbe77047b427002038230020a2
:104d340050020020212300202e23002020230020c5
:104d4400242300202f230020402300201c230020a4
:020000040000fa
:104d540008b5214b1b88002b35d1204b1b88002b19
:104d640035d14ff2f33002f059f800231c4a137086
:104d74001c4a13701c4a13701c4a13701c4a13708b
:104d84001c4a13801c4a13801c4a13801c4a13803b
:104d94001c4a13801c4a13801c4a13801c4a13802b
:104da4001c4a1385538582f840301b4a138553856a
:104db40082f84030194a1380194a1370194a137043
:104dc400194a137008bd022002f060f8c5e70320f9
:104dd40002f05cf8c5e700bf6401002092010020e6
:104de40098010020a50100209d0100207c010020e5
:104df4009901002094010020a801002072010020e4
:104e040068010020a0010020780100208e0100200c
:104e14006c010020b00200206c020020760100200a
:0c4e2400a6010020a4010020f4020020e0
:020000040000fa
:104e300008b52a4b1b78002b4fd0294b1b78002b31
:104e400037d0284b1b78002b37d1274b1b78002bf2
:104e500033d102f04cfd02f037f8244b1b7813bb22
:104e600002f049fd29e001f0cffd10f4806f0cd075
:104e700001221c4b1a7000221d4b1a801d4b1b78ff
:104e8000002be6d000f060ffe3e71b4b1b88002bf4
:104e9000dfd110f4006fdcd00122124b1a70002217
:104ea000134b1a80d5e701f071fad9e701f098fbae
:104eb00008e00d4b1b78002bd5d0104b1b68b3f5c9
:104ec0007a6ff3d2fef7fafd00f006fd01f07efee8
:104ed0000b4b1b680bb1984708bd08bdae270020df
:104ee000a5010020980100209d010020a4010020c0
:104ef000600100209e01002064010020f8000020d5
:044f0000200100206c
:020000040000fa
:104f0400002a64d02de9f04383b00d4617460646c7
:104f14004ff0c0094ff4417846e0032c04d8012c2b
:104f24008cbf0224012418e08df804502b0a8df85c
:104f340005308df806408df8079002f0d6fc01a9e3
:104f4400404601f0a7f801a94ff4407001f01af8a7
:104f540002f0cffc14b316e001248df804502b0aa0
:104f64008df805308df806408df8079002f0bdfcf1
:104f740001a9404601f08ef801a94ff4407001f0f8
:104f840001f802f0b6fc01a9324611f8013b02f81f
:104f9400013b931bdbb2a342f7d31646a4b22544cc
:104fa400adb23c1ba7b27fb115f0010fd4d13c4682
:104fb400042f28bf0424e4b215f0020fadd0012c55
:104fc4008cbf02240124c8e703b0bde8f083704716
:020000040000fa
:104fd400274b1b78002b4ad0264b1b78002b46d03e
:104fe400254b1b8813b3254a128893421bd80022f1
:104ff400234b1a70234b1b78002b38d00022214bf3
:105004001a70704700221e4b1a70f3e701221d4be1
:105014001a701d4bb3f90030002b28dd1b4a13888e
:105024000133138070470132144b1a800122144b50
:105034001a70174b1b8833b1164a12889342e1d970
:105044000132144b1a80144b1a8d144b1b899a424b
:10505400dcd30c4b1b7853b100220a4b1a700a4b59
:10506400b3f90030934202dd084b1a807047704751
:105074009d010020a401002072010020680100208d
:105084007c01002099010020760100206e0100209f
:1050940078010020a0010020b00200202c2700206d
:020000040000fa
:1050a400f0b5b1f80ce0cef3032e00280cbf0025b8
:1050b4001025bef1070f58d087b2002f56d0062610
:1050c400012223e0062b0ed009d8032b0bd0042b8e
:1050d40036d0974215d960880544adb211e0082b4b
:1050e4002ed90b2bf5d105f10f004ff6f0750540c5
:1050f400974206d90b2b34d0b3f5187f31d0103535
:10510400adb2013292b20636ba422fd8bef1080fc0
:105114000c690cbf0634a41923881f2be3d0d1d902
:105124002f2b0dd004d8202b0ad02e2bd1d1dae787
:10513400b3f5187fd7d0ccd3a3f262200128c8d806
:1051440005f11f004ff6e07505409742d9d9a3f247
:1051540062239bb2012b9abf60882d182035adb213
:10516400cfe760880544adb2c9e700252846f0bd05
:020000040000fa
:1051740030b583b02222204b1a804ff480721f4b2b
:105184001a804ff480531e4a13801e4a13801e4b0c
:1051940000241c805c800a229a801c4b1c805c804a
:1051a4009a801b4b1c601b4b1c601b4b1c601b4bd5
:1051b4001c601b4b1c7002ad45f8044d042240f6e4
:1051c4000c012846fff79cfe019b23f0007301931a
:1051d400042240f60c01284600f024fc114b1c70fc
:1051e400114b1c70114b1c70114b1c70114b1c701b
:1051f400114b1c7003b030bd62020020500200202d
:10520400480200205a02002010020020dc01002085
:105214005c02002068020020540200204c0200209e
:1052240064020020460200204502002058020020ab
:0c5234006102002060020020d801002070
:020000040000fa
:10524000f0b583b0294b1b7803f00f03012b49d035
:10525000274b1b780bb9f02445e0264b1c780cb18a
:10526000072440e005460788ba1d92b2224b1988f0
:1052700000f0dafb02a8002340f8043d042240f6c7
:105280000c01fff73ffe019b0193019b13f4006f9c
:1052900012d11a4b1e88b31fdb1b9bb20021184a88
:1052a0001160032b14d9144b19883144043904229a
:1052b00089b2134800f0b8fb124b1b6813b10022ef
:1052c000114b1a600f4b1d6001220a4b1a700ae045
:1052d000c3f10402b91d21f003012944084802f07a
:1052e00043f9e0e7f024204603b0f0bd630100205d
:1052f00046020020450200205a02002050020020f1
:0c53000080010020540200205c0200200c
:020000040000fa
:10530c00050008000700060010000f000700200031
:10531c000700000020000000060010000700070036
:10532c0020000700070020000700000020000000fc
:10533c00060010003f0007002000070007002000b7
:10534c003f000600100007000600100007000000d8
:10535c001000000000001000000000002000000001
:10536c0000002000000000002000000000002000d1
:10537c000000000000000000000000000000000021
:10538c000000000000000000000000000000000011
:10539c000000000000000000000000000000000001
:1053ac0000000000000000000000000000000000f1
:1053bc0000000000000000000000000000000000e1
:0853cc0001000100070000bf11
:020000040000fa
:1053d40008b50022294b1a70294b186810b1294bc3
:1053e4001b68c3b1284b1a68254b1a60254b1868f3
:1053f400a0b1fff723ff0022224b1a60234b1b7836
:1054040043b113f0010f11d113f0020f1cd113f0ab
:10541400400f29d108bd02f0c5f9e3e71c4801f0ab
:1054240007ff0028ead0fff709ffe7e7194b1868e0
:1054340002f0d0f902f06af90028ebd0134a13788d
:1054440023f00103137008bd23f002030f4a137005
:10545400104b186801f092fa0028dbd00b4a13783d
:1054640043f00203137008bd23f04003074a13708e
:10547400084b186802f01cf8cce700bf4502002076
:10548400680200204c020020540200206102002027
:08549400dc0100205c02002095
:020000040000fa
:10549c00002a5cd02de9f04383b00d461746064632
:1054ac004ff0c0094ff441783ee0032c04d8012c96
:1054bc008cbf0224012414e08df804502b0a8df8c3
:1054cc0005308df806408df8079001a9404600f094
:1054dc00ddfd01a94ff4407000f050fdf4b112e075
:1054ec0001248df804502b0a8df805308df80640f8
:1054fc008df8079001a9404600f0c8fd01a94ff4b2
:10550c00407000f03bfd01a9324611f8013b02f856
:10551c00013b931bdbb2a342f7d31646a4b225443e
:10552c00adb23c1ba7b27fb115f0010fd8d13c46f0
:10553c00042f28bf0424e4b215f0020fb5d0012cbf
:10554c008cbf02240124cce703b0bde8f083704784
:020000040000fa
:10555c00f0b583b00024224b1c60224b1c60224b04
:10556c001c60224b1c60224b1c60224b1c60fef703
:10557c0083fcfff71ffa01221f4b1a701f4b1c7084
:10558c001f4b1c601f4b1c601f4b1c600094019434
:10559c004ff47a7404264ff411651f4605e0019a06
:1055ac00934288bf3a60013c17d032462946684680
:1055bc0001f0dfff3246294601a801f0daff009a1c
:1055cc00019b9a4288bf03f1ff339b1a01933b68fe
:1055dc00002be4d1019b3b60e5e7002003b0f0bd5c
:1055ec00380100201c010020180100203c01002083
:1055fc003401002020010020ae270020fc000020f8
:0c560c00000100202801002008010020ff
:020000040000fa
:1056180070b5cd1c25f0030508350c2d38bf0c25b9
:10562800002d064601dba94203d90c233360002074
:1056380070bd02f09cf9234a1468214691b9224ca6
:1056480023681bb9304601f0e9fe20602946304640
:1056580001f0e4fe431c26d10c233360304602f0ef
:1056680087f9e4e70b685b1b1ad40b2b0fd90b6087
:10567800cd50cc18304602f07bf904f10b00231d05
:1056880020f00700c31a1bd05a42e25070bd8c426a
:105698000dbf63684b686360136018bf0c46e9e789
:1056a8000c464968cae7c41c24f00304a04205d08c
:1056b800211a304601f0b2fe0130cdd02560d9e77d
:0c56c80070bd00bf9c270020a027002020
:020000040000fa
:1056d40070b5002001f0fafe224d03681b0c2b80ec
:1056e400214e03683380012001f0f0fe03681b0c97
:1056f4009cb21e4a148002681d490a80308892b206
:1057040029880144914205dd1344984202da1624a3
:10571400204670bd0c3c174b1c80002001f0ecfbb4
:10572400012001f0e9fb0f4b188802f033f8124b0b
:10573400186038b10024114b1c7002f033f80e4b82
:105744001c60e5e701220d4b1a700a2002f022f8d2
:10575400002814bf0024022402f024f80022064b7f
:105764001a60d5e76202002048020020500200209f
:105774005a020020580100205c020020440200204c
:020000040000fa
:1057840070b582b005460c46244b1b7883421cbf7f
:10579400224b18704ff6ff7399421bd002ae46f8a5
:1057a400041d04224ff49a71304600f03bf91b4b60
:1057b4001b78019304224ff49871304600f032f9bb
:1057c40094b90022164b1a7002b070bd4122144bda
:1057d4001a70f9e7114b1b7802a840f8043d042223
:1057e4004ff4987100f01ef915f0100fe9d0a4f1f0
:1057f4001a039bb2182b05d80a4a22fa03f313f0b2
:10580400010fe3d1084b1b78012bdfd01b2c0cbffd
:1058140042224022024b1a70d6e700bf63010020e7
:0c582400ab010020010008016a01002017
:020000040000fa
:10583000f0b583b002ac002344f8083d6426254d42
:105840002146304600f0a0fb009bab42f8d102a9f4
:10585000002341f8083d5c2000f01efc932704263d
:105860004ff4017502ac44f8047d324629462046c7
:1058700000f0daf800230193324629462046fff76c
:1058800041fb019b932bedd1002502a840f8045d5c
:1058900004224ff4017100f0c7f802ac40f201138a
:1058a00044f8083d2146542000f0f6fb0123009304
:1058b00021465c2000f0f0fb2146582000f064fbfc
:1058c00001f0f0fc02f01bf801f096fe284603b050
:0858d000f0bd00bf2143658714
:020000040000fa
:1058d80030b583b0204b1c68002c33d01f4b1b689d
:1058e8001f4a12681f4909781f4800881f4d2d78e4
:1058f8000095a0470446ff2824d01d4b1b78013b88
:10590800032b10d8dfe803f00a022020194b18688f
:1059180020b101f045ff0022164b1a600022114603
:105928002046fff7a3f90023114a13700e4a13808b
:105938000c4a13700a4a1360084a13600b4a137022
:10594800054a136003b030bd044b1a68044b19684c
:10595800fff78cf9e7e700bf282300201823002071
:105968003c230020602300205e2300202d230020fc
